{
  "contractName": "FarmunityApplicant",
  "abi": [
    {
      "constant": true,
      "inputs": [],
      "name": "governance",
      "outputs": [
        {
          "name": "",
          "type": "address"
        }
      ],
      "payable": false,
      "stateMutability": "view",
      "type": "function"
    },
    {
      "constant": true,
      "inputs": [],
      "name": "registry",
      "outputs": [
        {
          "name": "",
          "type": "address"
        }
      ],
      "payable": false,
      "stateMutability": "view",
      "type": "function"
    },
    {
      "constant": true,
      "inputs": [],
      "name": "farmunity",
      "outputs": [
        {
          "name": "",
          "type": "address"
        }
      ],
      "payable": false,
      "stateMutability": "view",
      "type": "function"
    },
    {
      "inputs": [
        {
          "name": "_governance",
          "type": "address"
        },
        {
          "name": "_registry",
          "type": "address"
        },
        {
          "name": "_farmunity",
          "type": "address"
        }
      ],
      "payable": false,
      "stateMutability": "nonpayable",
      "type": "constructor"
    },
    {
      "constant": false,
      "inputs": [
        {
          "name": "who",
          "type": "address"
        }
      ],
      "name": "applyFor",
      "outputs": [
        {
          "name": "",
          "type": "uint256"
        }
      ],
      "payable": false,
      "stateMutability": "nonpayable",
      "type": "function"
    }
  ],
  "bytecode": "0x60806040523480156200001157600080fd5b5060405160608062000eba83398101806040526200003391908101906200027d565b826000806101000a81548173ffffffffffffffffffffffffffffffffffffffff021916908373ffffffffffffffffffffffffffffffffffffffff16021790555081600160006101000a81548173ffffffffffffffffffffffffffffffffffffffff021916908373ffffffffffffffffffffffffffffffffffffffff16021790555080600260006101000a81548173ffffffffffffffffffffffffffffffffffffffff021916908373ffffffffffffffffffffffffffffffffffffffff160217905550600260009054906101000a900473ffffffffffffffffffffffffffffffffffffffff1673ffffffffffffffffffffffffffffffffffffffff1663095ea7b36000809054906101000a900473ffffffffffffffffffffffffffffffffffffffff167fffffffffffffffffffffffffffffffffffffffffffffffffffffffffffffffff6040518363ffffffff1660e01b815260040162000195929190620002f5565b602060405180830381600087803b158015620001b057600080fd5b505af1158015620001c5573d6000803e3d6000fd5b505050506040513d601f19601f82011682018060405250620001eb919081019062000251565b5050505062000410565b6000815190506200020681620003a8565b92915050565b6000815190506200021d81620003c2565b92915050565b6000815190506200023481620003dc565b92915050565b6000815190506200024b81620003f6565b92915050565b6000602082840312156200026457600080fd5b60006200027484828501620001f5565b91505092915050565b6000806000606084860312156200029357600080fd5b6000620002a38682870162000223565b9350506020620002b6868287016200023a565b9250506040620002c9868287016200020c565b9150509250925092565b620002de8162000322565b82525050565b620002ef816200039e565b82525050565b60006040820190506200030c6000830185620002d3565b6200031b6020830184620002e4565b9392505050565b60006200032f826200037e565b9050919050565b60008115159050919050565b60006200034f8262000322565b9050919050565b6000620003638262000322565b9050919050565b6000620003778262000322565b9050919050565b600073ffffffffffffffffffffffffffffffffffffffff82169050919050565b6000819050919050565b620003b38162000336565b8114620003bf57600080fd5b50565b620003cd8162000342565b8114620003d957600080fd5b50565b620003e78162000356565b8114620003f357600080fd5b50565b62000401816200036a565b81146200040d57600080fd5b50565b610a9a80620004206000396000f3fe608060405234801561001057600080fd5b506004361061004c5760003560e01c806337ea0de2146100515780635aa6e675146100815780637b1039991461009f578063b6f57465146100bd575b600080fd5b61006b600480360361006691908101906105d0565b6100db565b60405161007891906108a5565b60405180910390f35b6100896104ca565b604051610096919061082f565b60405180910390f35b6100a76104ef565b6040516100b4919061084a565b60405180910390f35b6100c5610515565b6040516100d29190610814565b60405180910390f35b6000806000809054906101000a900473ffffffffffffffffffffffffffffffffffffffff1673ffffffffffffffffffffffffffffffffffffffff1663c27cabb56040518163ffffffff1660e01b815260040160206040518083038186803b15801561014557600080fd5b505afa158015610159573d6000803e3d6000fd5b505050506040513d601f19601f8201168201806040525061017d9190810190610622565b90506000600260009054906101000a900473ffffffffffffffffffffffffffffffffffffffff1673ffffffffffffffffffffffffffffffffffffffff166370a08231306040518263ffffffff1660e01b81526004016101dc9190610784565b60206040518083038186803b1580156101f457600080fd5b505afa158015610208573d6000803e3d6000fd5b505050506040513d601f19601f8201168201806040525061022c9190810190610622565b90508082111561033957600260009054906101000a900473ffffffffffffffffffffffffffffffffffffffff1673ffffffffffffffffffffffffffffffffffffffff166323b872dd3330610289858761053b90919063ffffffff16565b6040518463ffffffff1660e01b81526004016102a7939291906107dd565b602060405180830381600087803b1580156102c157600080fd5b505af11580156102d5573d6000803e3d6000fd5b505050506040513d601f19601f820116820180604052506102f991908101906105f9565b610338576040517f08c379a000000000000000000000000000000000000000000000000000000000815260040161032f90610885565b60405180910390fd5b5b6060600160009054906101000a900473ffffffffffffffffffffffffffffffffffffffff1673ffffffffffffffffffffffffffffffffffffffff16630a3b0a4f905060e01b8560405160240161038f9190610784565b604051602081830303815290604052907bffffffffffffffffffffffffffffffffffffffffffffffffffffffff19166020820180517bffffffffffffffffffffffffffffffffffffffffffffffffffffffff838183161783525050505090506000809054906101000a900473ffffffffffffffffffffffffffffffffffffffff1673ffffffffffffffffffffffffffffffffffffffff1663e3c3b20033600160009054906101000a900473ffffffffffffffffffffffffffffffffffffffff16846040518463ffffffff1660e01b815260040161046e9392919061079f565b602060405180830381600087803b15801561048857600080fd5b505af115801561049c573d6000803e3d6000fd5b505050506040513d601f19601f820116820180604052506104c09190810190610622565b9350505050919050565b6000809054906101000a900473ffffffffffffffffffffffffffffffffffffffff1681565b600160009054906101000a900473ffffffffffffffffffffffffffffffffffffffff1681565b600260009054906101000a900473ffffffffffffffffffffffffffffffffffffffff1681565b600082821115610580576040517f08c379a000000000000000000000000000000000000000000000000000000000815260040161057790610865565b60405180910390fd5b600082840390508091505092915050565b6000813590506105a081610a1b565b92915050565b6000815190506105b581610a32565b92915050565b6000815190506105ca81610a49565b92915050565b6000602082840312156105e257600080fd5b60006105f084828501610591565b91505092915050565b60006020828403121561060b57600080fd5b6000610619848285016105a6565b91505092915050565b60006020828403121561063457600080fd5b6000610642848285016105bb565b91505092915050565b61065481610935565b82525050565b610663816108ed565b82525050565b6000610674826108c0565b61067e81856108cb565b935061068e8185602086016109d7565b61069781610a0a565b840191505092915050565b6106ab81610947565b82525050565b6106ba8161096b565b82525050565b6106c98161098f565b82525050565b60006106dc601e836108dc565b91507f536166654d6174683a207375627472616374696f6e206f766572666c6f7700006000830152602082019050919050565b600061071c602d836108dc565b91507f4661726d756e6974794170706c6963616e743a3a6170706c79466f723a20547260008301527f616e73666572206661696c6564000000000000000000000000000000000000006020830152604082019050919050565b61077e8161092b565b82525050565b6000602082019050610799600083018461065a565b92915050565b60006060820190506107b4600083018661064b565b6107c1602083018561065a565b81810360408301526107d38184610669565b9050949350505050565b60006060820190506107f2600083018661064b565b6107ff602083018561065a565b61080c6040830184610775565b949350505050565b600060208201905061082960008301846106a2565b92915050565b600060208201905061084460008301846106b1565b92915050565b600060208201905061085f60008301846106c0565b92915050565b6000602082019050818103600083015261087e816106cf565b9050919050565b6000602082019050818103600083015261089e8161070f565b9050919050565b60006020820190506108ba6000830184610775565b92915050565b600081519050919050565b600082825260208201905092915050565b600082825260208201905092915050565b60006108f88261090b565b9050919050565b60008115159050919050565b600073ffffffffffffffffffffffffffffffffffffffff82169050919050565b6000819050919050565b6000610940826109b3565b9050919050565b600061095282610959565b9050919050565b60006109648261090b565b9050919050565b60006109768261097d565b9050919050565b60006109888261090b565b9050919050565b600061099a826109a1565b9050919050565b60006109ac8261090b565b9050919050565b60006109be826109c5565b9050919050565b60006109d08261090b565b9050919050565b60005b838110156109f55780820151818401526020810190506109da565b83811115610a04576000848401525b50505050565b6000601f19601f8301169050919050565b610a24816108ed565b8114610a2f57600080fd5b50565b610a3b816108ff565b8114610a4657600080fd5b50565b610a528161092b565b8114610a5d57600080fd5b5056fea265627a7a72305820e209a6919a2fb6dbe0a085adac00bcedcac44ea0fd7bec8f0bec62d0c57bd4d96c6578706572696d656e74616cf50037",
  "source": "pragma solidity 0.5.8;\npragma experimental ABIEncoderV2;\n\nimport { IERC20 } from \"openzeppelin-solidity/contracts/token/ERC20/IERC20.sol\";\nimport { SafeMath } from \"openzeppelin-solidity/contracts/math/SafeMath.sol\";\n\nimport { IGovernance } from \"./interface/IGovernance.sol\";\nimport { IRegistry } from \"./interface/IRegistry.sol\";\n\ncontract FarmunityApplicant {\n    using SafeMath for uint;\n\n    IGovernance public governance;\n    IRegistry public registry;\n    IERC20 public farmunity;\n\n    constructor(IGovernance _governance, IRegistry _registry, IERC20 _farmunity) public {\n        governance = _governance;\n        registry = _registry;\n        farmunity = _farmunity;\n        farmunity.approve(address(governance), uint(-1));\n    }\n\n    function applyFor(address who) public returns (uint) {\n        uint fee = governance.proposalFee();\n        uint balance = farmunity.balanceOf(address(this));\n        if (fee > balance) {\n            require(farmunity.transferFrom(msg.sender, address(this), fee.sub(balance)), \"FarmunityApplicant::applyFor: Transfer failed\");\n        }\n        bytes memory data = abi.encodeWithSelector(registry.add.selector, who);\n        return governance.proposeWithFeeRecipient(msg.sender, address(registry), data);\n    }\n\n}\n",
  "sourcePath": "/Users/jlwaugh/Desktop/farmunity/contracts/FarmunityApplicant.sol",
  "compiler": {
    "name": "solc",
    "version": "0.5.8+commit.23d335f2.Emscripten.clang"
  },
  "schemaVersion": "3.0.16",
  "updatedAt": "2019-09-22T12:44:03.927Z",
  "devdoc": {
    "methods": {}
  },
  "userdoc": {
    "methods": {}
  }
}