{
  "contractName": "FarmunityRegistry",
  "abi": [
    {
      "constant": true,
      "inputs": [],
      "name": "governance",
      "outputs": [
        {
          "name": "",
          "type": "address"
        }
      ],
      "payable": false,
      "stateMutability": "view",
      "type": "function"
    },
    {
      "constant": true,
      "inputs": [
        {
          "name": "",
          "type": "address"
        }
      ],
      "name": "farms",
      "outputs": [
        {
          "name": "",
          "type": "bool"
        }
      ],
      "payable": false,
      "stateMutability": "view",
      "type": "function"
    },
    {
      "constant": true,
      "inputs": [],
      "name": "farmunity",
      "outputs": [
        {
          "name": "",
          "type": "address"
        }
      ],
      "payable": false,
      "stateMutability": "view",
      "type": "function"
    },
    {
      "inputs": [
        {
          "name": "_farmunity",
          "type": "address"
        },
        {
          "name": "_governance",
          "type": "address"
        }
      ],
      "payable": false,
      "stateMutability": "nonpayable",
      "type": "constructor"
    },
    {
      "constant": false,
      "inputs": [
        {
          "name": "who",
          "type": "address"
        }
      ],
      "name": "add",
      "outputs": [],
      "payable": false,
      "stateMutability": "nonpayable",
      "type": "function"
    },
    {
      "constant": false,
      "inputs": [
        {
          "name": "who",
          "type": "address"
        }
      ],
      "name": "remove",
      "outputs": [],
      "payable": false,
      "stateMutability": "nonpayable",
      "type": "function"
    },
    {
      "constant": true,
      "inputs": [
        {
          "name": "who",
          "type": "address"
        }
      ],
      "name": "isFarm",
      "outputs": [
        {
          "name": "",
          "type": "bool"
        }
      ],
      "payable": false,
      "stateMutability": "view",
      "type": "function"
    }
  ],
  "bytecode": "0x60806040523480156200001157600080fd5b5060405160408062000d7e8339810180604052620000339190810190620000eb565b81600160006101000a81548173ffffffffffffffffffffffffffffffffffffffff021916908373ffffffffffffffffffffffffffffffffffffffff16021790555080600260006101000a81548173ffffffffffffffffffffffffffffffffffffffff021916908373ffffffffffffffffffffffffffffffffffffffff1602179055505050620001a8565b600081519050620000ce8162000174565b92915050565b600081519050620000e5816200018e565b92915050565b60008060408385031215620000ff57600080fd5b60006200010f85828601620000d4565b92505060206200012285828601620000bd565b9150509250929050565b6000620001398262000154565b9050919050565b60006200014d826200012c565b9050919050565b600073ffffffffffffffffffffffffffffffffffffffff82169050919050565b6200017f816200012c565b81146200018b57600080fd5b50565b620001998162000140565b8114620001a557600080fd5b50565b610bc680620001b86000396000f3fe608060405234801561001057600080fd5b50600436106100625760003560e01c80630a3b0a4f1461006757806329092d0e146100835780635aa6e6751461009f5780639a98ce27146100bd578063b6f57465146100ed578063f72c436f1461010b575b600080fd5b610081600480360361007c919081019061077b565b61013b565b005b61009d6004803603610098919081019061077b565b6102c0565b005b6100a76103d7565b6040516100b4919061097f565b60405180910390f35b6100d760048036036100d2919081019061077b565b6103fd565b6040516100e49190610a15565b60405180910390f35b6100f561041d565b6040516101029190610a30565b60405180910390f35b6101256004803603610120919081019061077b565b610443565b6040516101329190610a15565b60405180910390f35b600260009054906101000a900473ffffffffffffffffffffffffffffffffffffffff1673ffffffffffffffffffffffffffffffffffffffff163373ffffffffffffffffffffffffffffffffffffffff16146101cb576040517f08c379a00000000000000000000000000000000000000000000000000000000081526004016101c290610a8b565b60405180910390fd5b600015156000808373ffffffffffffffffffffffffffffffffffffffff1673ffffffffffffffffffffffffffffffffffffffff16815260200190815260200160002060009054906101000a900460ff1615151461025d576040517f08c379a000000000000000000000000000000000000000000000000000000000815260040161025490610a4b565b60405180910390fd5b61026681610498565b60016000808373ffffffffffffffffffffffffffffffffffffffff1673ffffffffffffffffffffffffffffffffffffffff16815260200190815260200160002060006101000a81548160ff02191690831515021790555050565b600260009054906101000a900473ffffffffffffffffffffffffffffffffffffffff1673ffffffffffffffffffffffffffffffffffffffff163373ffffffffffffffffffffffffffffffffffffffff16148061034757508073ffffffffffffffffffffffffffffffffffffffff163373ffffffffffffffffffffffffffffffffffffffff16145b610386576040517f08c379a000000000000000000000000000000000000000000000000000000000815260040161037d90610a6b565b60405180910390fd5b6000808273ffffffffffffffffffffffffffffffffffffffff1673ffffffffffffffffffffffffffffffffffffffff16815260200190815260200160002060006101000a81549060ff021916905550565b600260009054906101000a900473ffffffffffffffffffffffffffffffffffffffff1681565b60006020528060005260406000206000915054906101000a900460ff1681565b600160009054906101000a900473ffffffffffffffffffffffffffffffffffffffff1681565b60008060008373ffffffffffffffffffffffffffffffffffffffff1673ffffffffffffffffffffffffffffffffffffffff16815260200190815260200160002060009054906101000a900460ff169050919050565b6000600160009054906101000a900473ffffffffffffffffffffffffffffffffffffffff1673ffffffffffffffffffffffffffffffffffffffff166318160ddd6040518163ffffffff1660e01b815260040160206040518083038186803b15801561050257600080fd5b505afa158015610516573d6000803e3d6000fd5b505050506040513d601f19601f8201168201806040525061053a91908101906107a4565b90506a17293b0a9e69fd9c0000008110156105ed57600160009054906101000a900473ffffffffffffffffffffffffffffffffffffffff1673ffffffffffffffffffffffffffffffffffffffff166340c10f198369065a4da25d3016c000006040518363ffffffff1660e01b81526004016105b69291906109c3565b600060405180830381600087803b1580156105d057600080fd5b505af11580156105e4573d6000803e3d6000fd5b5050505061074d565b6a260ce0ff28d2b2ee00000081101561069e57600160009054906101000a900473ffffffffffffffffffffffffffffffffffffffff1673ffffffffffffffffffffffffffffffffffffffff166340c10f198369043c33c19375648000006040518363ffffffff1660e01b815260040161066792919061099a565b600060405180830381600087803b15801561068157600080fd5b505af1158015610695573d6000803e3d6000fd5b5050505061074c565b6a52b7d2dcc80cd2e400000081101561074b57600160009054906101000a900473ffffffffffffffffffffffffffffffffffffffff1673ffffffffffffffffffffffffffffffffffffffff166340c10f198369014542ba12a337c000006040518363ffffffff1660e01b81526004016107189291906109ec565b600060405180830381600087803b15801561073257600080fd5b505af1158015610746573d6000803e3d6000fd5b505050505b5b5b5050565b60008135905061076081610b5e565b92915050565b60008151905061077581610b75565b92915050565b60006020828403121561078d57600080fd5b600061079b84828501610751565b91505092915050565b6000602082840312156107b657600080fd5b60006107c484828501610766565b91505092915050565b6107d681610abc565b82525050565b6107e581610ace565b82525050565b6107f481610b04565b82525050565b61080381610b28565b82525050565b61081281610b3a565b82525050565b61082181610b4c565b82525050565b6000610834603a83610aab565b91507f4661726d756e69747952656769737472793a3a6164643a20416464726573732060008301527f697320616c7265616479206f6e207468652072656769737472790000000000006020830152604082019050919050565b600061089a605783610aab565b91507f4661726d756e69747952656769737472793a3a72656d6f76653a204f6e6c792060008301527f676f7665726e616e6365206f7220746865206964656e74697479206f776e657260208301527f2063616e2072656d6f766520616e206964656e746974790000000000000000006040830152606082019050919050565b6000610926603b83610aab565b91507f4661726d756e69747952656769737472793a3a6164643a204f6e6c7920676f7660008301527f65726e616e63652063616e2061646420616e206964656e7469747900000000006020830152604082019050919050565b600060208201905061099460008301846107cd565b92915050565b60006040820190506109af60008301856107cd565b6109bc60208301846107fa565b9392505050565b60006040820190506109d860008301856107cd565b6109e56020830184610809565b9392505050565b6000604082019050610a0160008301856107cd565b610a0e6020830184610818565b9392505050565b6000602082019050610a2a60008301846107dc565b92915050565b6000602082019050610a4560008301846107eb565b92915050565b60006020820190508181036000830152610a6481610827565b9050919050565b60006020820190508181036000830152610a848161088d565b9050919050565b60006020820190508181036000830152610aa481610919565b9050919050565b600082825260208201905092915050565b6000610ac782610ada565b9050919050565b60008115159050919050565b600073ffffffffffffffffffffffffffffffffffffffff82169050919050565b6000819050919050565b6000610b0f82610b16565b9050919050565b6000610b2182610ada565b9050919050565b6000610b3382610afa565b9050919050565b6000610b4582610afa565b9050919050565b6000610b5782610afa565b9050919050565b610b6781610abc565b8114610b7257600080fd5b50565b610b7e81610afa565b8114610b8957600080fd5b5056fea265627a7a723058200bd3774bbfcb73d8726c57ed5c067875920c92b426e9cea0810509d0c82cdf546c6578706572696d656e74616cf50037",
  "source": "pragma solidity 0.5.8;\npragma experimental ABIEncoderV2;\n\nimport { IFarmunity } from \"./interface/IFarmunity.sol\";\n\ncontract FarmunityRegistry {\n\n    mapping (address => bool) public farms;\n\n    IFarmunity public farmunity;\n    address public governance;\n\n    constructor(IFarmunity _farmunity, address _governance) public {\n        farmunity = _farmunity;\n        governance = _governance;\n    }\n\n    function add(address who) public {\n        require(msg.sender == governance, \"FarmunityRegistry::add: Only governance can add an identity\");\n        require(farms[who] == false, \"FarmunityRegistry::add: Address is already on the registry\");\n\n        _reward(who);\n        farms[who] = true;\n    }\n\n    function remove(address who) public {\n        require(\n            msg.sender == governance || msg.sender == who,\n            \"FarmunityRegistry::remove: Only governance or the identity owner can remove an identity\"\n        );\n        delete farms[who];\n    }\n\n    function isHuman(address who) public view returns (bool) {\n        return farms[who];\n    }\n\n    function _reward(address who) internal {\n        uint totalSupply = farmunity.totalSupply();\n\n        if (totalSupply < 28000000e18) {\n            farmunity.mint(who, 30000e18); // 1 - 100\n        } else if (totalSupply < 46000000e18) {\n            farmunity.mint(who, 20000e18); // 101 - 1000\n        } else if (totalSupply < 100000000e18) {\n            farmunity.mint(who, 6000e18); // 1001 - 10000\n        }\n\n    }\n\n}",
  "sourcePath": "/Users/jlwaugh/Desktop/farmunity/contracts/FarmunityMembers.sol",
  "compiler": {
    "name": "solc",
    "version": "0.5.8+commit.23d335f2.Emscripten.clang"
  },
  "schemaVersion": "3.0.16",
  "updatedAt": "2019-09-22T12:32:55.551Z",
  "devdoc": {
    "methods": {}
  },
  "userdoc": {
    "methods": {}
  }
}