{
  "contractName": "Farmunity",
  "abi": [
    {
      "constant": true,
      "inputs": [],
      "name": "name",
      "outputs": [
        {
          "name": "",
          "type": "string"
        }
      ],
      "payable": false,
      "stateMutability": "view",
      "type": "function"
    },
    {
      "constant": false,
      "inputs": [
        {
          "name": "spender",
          "type": "address"
        },
        {
          "name": "value",
          "type": "uint256"
        }
      ],
      "name": "approve",
      "outputs": [
        {
          "name": "",
          "type": "bool"
        }
      ],
      "payable": false,
      "stateMutability": "nonpayable",
      "type": "function"
    },
    {
      "constant": true,
      "inputs": [],
      "name": "totalSupply",
      "outputs": [
        {
          "name": "",
          "type": "uint256"
        }
      ],
      "payable": false,
      "stateMutability": "view",
      "type": "function"
    },
    {
      "constant": false,
      "inputs": [
        {
          "name": "sender",
          "type": "address"
        },
        {
          "name": "recipient",
          "type": "address"
        },
        {
          "name": "amount",
          "type": "uint256"
        }
      ],
      "name": "transferFrom",
      "outputs": [
        {
          "name": "",
          "type": "bool"
        }
      ],
      "payable": false,
      "stateMutability": "nonpayable",
      "type": "function"
    },
    {
      "constant": true,
      "inputs": [],
      "name": "INITIAL_SUPPLY",
      "outputs": [
        {
          "name": "",
          "type": "uint256"
        }
      ],
      "payable": false,
      "stateMutability": "view",
      "type": "function"
    },
    {
      "constant": true,
      "inputs": [],
      "name": "decimals",
      "outputs": [
        {
          "name": "",
          "type": "uint8"
        }
      ],
      "payable": false,
      "stateMutability": "view",
      "type": "function"
    },
    {
      "constant": false,
      "inputs": [
        {
          "name": "spender",
          "type": "address"
        },
        {
          "name": "addedValue",
          "type": "uint256"
        }
      ],
      "name": "increaseAllowance",
      "outputs": [
        {
          "name": "",
          "type": "bool"
        }
      ],
      "payable": false,
      "stateMutability": "nonpayable",
      "type": "function"
    },
    {
      "constant": true,
      "inputs": [],
      "name": "FINAL_SUPPLY",
      "outputs": [
        {
          "name": "",
          "type": "uint256"
        }
      ],
      "payable": false,
      "stateMutability": "view",
      "type": "function"
    },
    {
      "constant": true,
      "inputs": [],
      "name": "version",
      "outputs": [
        {
          "name": "",
          "type": "string"
        }
      ],
      "payable": false,
      "stateMutability": "view",
      "type": "function"
    },
    {
      "constant": true,
      "inputs": [
        {
          "name": "account",
          "type": "address"
        }
      ],
      "name": "balanceOf",
      "outputs": [
        {
          "name": "",
          "type": "uint256"
        }
      ],
      "payable": false,
      "stateMutability": "view",
      "type": "function"
    },
    {
      "constant": true,
      "inputs": [],
      "name": "registry",
      "outputs": [
        {
          "name": "",
          "type": "address"
        }
      ],
      "payable": false,
      "stateMutability": "view",
      "type": "function"
    },
    {
      "constant": true,
      "inputs": [],
      "name": "symbol",
      "outputs": [
        {
          "name": "",
          "type": "string"
        }
      ],
      "payable": false,
      "stateMutability": "view",
      "type": "function"
    },
    {
      "constant": false,
      "inputs": [
        {
          "name": "spender",
          "type": "address"
        },
        {
          "name": "subtractedValue",
          "type": "uint256"
        }
      ],
      "name": "decreaseAllowance",
      "outputs": [
        {
          "name": "",
          "type": "bool"
        }
      ],
      "payable": false,
      "stateMutability": "nonpayable",
      "type": "function"
    },
    {
      "constant": false,
      "inputs": [
        {
          "name": "recipient",
          "type": "address"
        },
        {
          "name": "amount",
          "type": "uint256"
        }
      ],
      "name": "transfer",
      "outputs": [
        {
          "name": "",
          "type": "bool"
        }
      ],
      "payable": false,
      "stateMutability": "nonpayable",
      "type": "function"
    },
    {
      "constant": true,
      "inputs": [
        {
          "name": "owner",
          "type": "address"
        },
        {
          "name": "spender",
          "type": "address"
        }
      ],
      "name": "allowance",
      "outputs": [
        {
          "name": "",
          "type": "uint256"
        }
      ],
      "payable": false,
      "stateMutability": "view",
      "type": "function"
    },
    {
      "inputs": [
        {
          "name": "_registry",
          "type": "address"
        }
      ],
      "payable": false,
      "stateMutability": "nonpayable",
      "type": "constructor"
    },
    {
      "anonymous": false,
      "inputs": [
        {
          "indexed": true,
          "name": "from",
          "type": "address"
        },
        {
          "indexed": true,
          "name": "to",
          "type": "address"
        },
        {
          "indexed": false,
          "name": "value",
          "type": "uint256"
        }
      ],
      "name": "Transfer",
      "type": "event"
    },
    {
      "anonymous": false,
      "inputs": [
        {
          "indexed": true,
          "name": "owner",
          "type": "address"
        },
        {
          "indexed": true,
          "name": "spender",
          "type": "address"
        },
        {
          "indexed": false,
          "name": "value",
          "type": "uint256"
        }
      ],
      "name": "Approval",
      "type": "event"
    },
    {
      "constant": false,
      "inputs": [
        {
          "name": "account",
          "type": "address"
        },
        {
          "name": "value",
          "type": "uint256"
        }
      ],
      "name": "mint",
      "outputs": [],
      "payable": false,
      "stateMutability": "nonpayable",
      "type": "function"
    }
  ],
  "bytecode": "0x60806040526040518060400160405280600581526020017f312e302e300000000000000000000000000000000000000000000000000000008152506003908051906020019062000051929190620002d9565b503480156200005f57600080fd5b5060405160208062001be783398101806040526200008191908101906200039f565b80600460006101000a81548173ffffffffffffffffffffffffffffffffffffffff021916908373ffffffffffffffffffffffffffffffffffffffff160217905550620000df336a14adf4b7320334b9000000620000e660201b60201c565b506200052a565b600073ffffffffffffffffffffffffffffffffffffffff168273ffffffffffffffffffffffffffffffffffffffff16141562000159576040517f08c379a0000000000000000000000000000000000000000000000000000000008152600401620001509062000482565b60405180910390fd5b62000175816002546200028160201b62000d521790919060201c565b600281905550620001d3816000808573ffffffffffffffffffffffffffffffffffffffff1673ffffffffffffffffffffffffffffffffffffffff168152602001908152602001600020546200028160201b62000d521790919060201c565b6000808473ffffffffffffffffffffffffffffffffffffffff1673ffffffffffffffffffffffffffffffffffffffff168152602001908152602001600020819055508173ffffffffffffffffffffffffffffffffffffffff16600073ffffffffffffffffffffffffffffffffffffffff167fddf252ad1be2c89b69c2b068fc378daa952ba7f163c4a11628f55a4df523b3ef83604051620002759190620004a4565b60405180910390a35050565b600080828401905083811015620002cf576040517f08c379a0000000000000000000000000000000000000000000000000000000008152600401620002c69062000460565b60405180910390fd5b8091505092915050565b828054600181600116156101000203166002900490600052602060002090601f016020900481019282601f106200031c57805160ff19168380011785556200034d565b828001600101855582156200034d579182015b828111156200034c5782518255916020019190600101906200032f565b5b5090506200035c919062000360565b5090565b6200038591905b808211156200038157600081600090555060010162000367565b5090565b90565b600081519050620003998162000510565b92915050565b600060208284031215620003b257600080fd5b6000620003c28482850162000388565b91505092915050565b6000620003da601b83620004c1565b91507f536166654d6174683a206164646974696f6e206f766572666c6f7700000000006000830152602082019050919050565b60006200041c601f83620004c1565b91507f45524332303a206d696e7420746f20746865207a65726f2061646472657373006000830152602082019050919050565b6200045a8162000506565b82525050565b600060208201905081810360008301526200047b81620003cb565b9050919050565b600060208201905081810360008301526200049d816200040d565b9050919050565b6000602082019050620004bb60008301846200044f565b92915050565b600082825260208201905092915050565b6000620004df82620004e6565b9050919050565b600073ffffffffffffffffffffffffffffffffffffffff82169050919050565b6000819050919050565b6200051b81620004d2565b81146200052757600080fd5b50565b6116ad806200053a6000396000f3fe608060405234801561001057600080fd5b50600436106101005760003560e01c806340c10f191161009757806395d89b411161006657806395d89b41146102b3578063a457c2d7146102d1578063a9059cbb14610301578063dd62ed3e1461033157610100565b806340c10f191461022b57806354fd4d501461024757806370a08231146102655780637b1039991461029557610100565b80632ff2e9dc116100d35780632ff2e9dc146101a1578063313ce567146101bf57806339509351146101dd57806339605da21461020d57610100565b806306fdde0314610105578063095ea7b31461012357806318160ddd1461015357806323b872dd14610171575b600080fd5b61010d610361565b60405161011a9190611418565b60405180910390f35b61013d6004803603610138919081019061100d565b61039a565b60405161014a91906113fd565b60405180910390f35b61015b6103b1565b604051610168919061155a565b60405180910390f35b61018b60048036036101869190810190610fbe565b6103bb565b60405161019891906113fd565b60405180910390f35b6101a961046c565b6040516101b6919061155a565b60405180910390f35b6101c761047b565b6040516101d49190611575565b60405180910390f35b6101f760048036036101f2919081019061100d565b610480565b60405161020491906113fd565b60405180910390f35b610215610525565b604051610222919061155a565b60405180910390f35b6102456004803603610240919081019061100d565b610534565b005b61024f610639565b60405161025c9190611418565b60405180910390f35b61027f600480360361027a9190810190610f59565b6106d7565b60405161028c919061155a565b60405180910390f35b61029d61071f565b6040516102aa91906113e2565b60405180910390f35b6102bb610745565b6040516102c89190611418565b60405180910390f35b6102eb60048036036102e6919081019061100d565b61077e565b6040516102f891906113fd565b60405180910390f35b61031b6004803603610316919081019061100d565b610823565b60405161032891906113fd565b60405180910390f35b61034b60048036036103469190810190610f82565b61083a565b604051610358919061155a565b60405180910390f35b6040518060400160405280600981526020017f4661726d756e697479000000000000000000000000000000000000000000000081525081565b60006103a73384846108c1565b6001905092915050565b6000600254905090565b60006103c8848484610a8c565b610461843361045c85600160008a73ffffffffffffffffffffffffffffffffffffffff1673ffffffffffffffffffffffffffffffffffffffff16815260200190815260200160002060003373ffffffffffffffffffffffffffffffffffffffff1673ffffffffffffffffffffffffffffffffffffffff16815260200190815260200160002054610cfc90919063ffffffff16565b6108c1565b600190509392505050565b6a14adf4b7320334b900000081565b601281565b600061051b338461051685600160003373ffffffffffffffffffffffffffffffffffffffff1673ffffffffffffffffffffffffffffffffffffffff16815260200190815260200160002060008973ffffffffffffffffffffffffffffffffffffffff1673ffffffffffffffffffffffffffffffffffffffff16815260200190815260200160002054610d5290919063ffffffff16565b6108c1565b6001905092915050565b6a52b7d2dcc80cd2e400000081565b600460009054906101000a900473ffffffffffffffffffffffffffffffffffffffff1673ffffffffffffffffffffffffffffffffffffffff163373ffffffffffffffffffffffffffffffffffffffff16146105c4576040517f08c379a00000000000000000000000000000000000000000000000000000000081526004016105bb906114ba565b60405180910390fd5b6a52b7d2dcc80cd2e40000006105ea826105dc6103b1565b610d5290919063ffffffff16565b111561062b576040517f08c379a00000000000000000000000000000000000000000000000000000000081526004016106229061151a565b60405180910390fd5b6106358282610da7565b5050565b60038054600181600116156101000203166002900480601f0160208091040260200160405190810160405280929190818152602001828054600181600116156101000203166002900480156106cf5780601f106106a4576101008083540402835291602001916106cf565b820191906000526020600020905b8154815290600101906020018083116106b257829003601f168201915b505050505081565b60008060008373ffffffffffffffffffffffffffffffffffffffff1673ffffffffffffffffffffffffffffffffffffffff168152602001908152602001600020549050919050565b600460009054906101000a900473ffffffffffffffffffffffffffffffffffffffff1681565b6040518060400160405280600381526020017f48554d000000000000000000000000000000000000000000000000000000000081525081565b6000610819338461081485600160003373ffffffffffffffffffffffffffffffffffffffff1673ffffffffffffffffffffffffffffffffffffffff16815260200190815260200160002060008973ffffffffffffffffffffffffffffffffffffffff1673ffffffffffffffffffffffffffffffffffffffff16815260200190815260200160002054610cfc90919063ffffffff16565b6108c1565b6001905092915050565b6000610830338484610a8c565b6001905092915050565b6000600160008473ffffffffffffffffffffffffffffffffffffffff1673ffffffffffffffffffffffffffffffffffffffff16815260200190815260200160002060008373ffffffffffffffffffffffffffffffffffffffff1673ffffffffffffffffffffffffffffffffffffffff16815260200190815260200160002054905092915050565b600073ffffffffffffffffffffffffffffffffffffffff168373ffffffffffffffffffffffffffffffffffffffff161415610931576040517f08c379a0000000000000000000000000000000000000000000000000000000008152600401610928906114fa565b60405180910390fd5b600073ffffffffffffffffffffffffffffffffffffffff168273ffffffffffffffffffffffffffffffffffffffff1614156109a1576040517f08c379a00000000000000000000000000000000000000000000000000000000081526004016109989061145a565b60405180910390fd5b80600160008573ffffffffffffffffffffffffffffffffffffffff1673ffffffffffffffffffffffffffffffffffffffff16815260200190815260200160002060008473ffffffffffffffffffffffffffffffffffffffff1673ffffffffffffffffffffffffffffffffffffffff168152602001908152602001600020819055508173ffffffffffffffffffffffffffffffffffffffff168373ffffffffffffffffffffffffffffffffffffffff167f8c5be1e5ebec7d5bd14f71427d1e84f3dd0314c0f7b2291e5b200ac8c7c3b92583604051610a7f919061155a565b60405180910390a3505050565b600073ffffffffffffffffffffffffffffffffffffffff168373ffffffffffffffffffffffffffffffffffffffff161415610afc576040517f08c379a0000000000000000000000000000000000000000000000000000000008152600401610af3906114da565b60405180910390fd5b600073ffffffffffffffffffffffffffffffffffffffff168273ffffffffffffffffffffffffffffffffffffffff161415610b6c576040517f08c379a0000000000000000000000000000000000000000000000000000000008152600401610b639061143a565b60405180910390fd5b610bbd816000808673ffffffffffffffffffffffffffffffffffffffff1673ffffffffffffffffffffffffffffffffffffffff16815260200190815260200160002054610cfc90919063ffffffff16565b6000808573ffffffffffffffffffffffffffffffffffffffff1673ffffffffffffffffffffffffffffffffffffffff16815260200190815260200160002081905550610c50816000808573ffffffffffffffffffffffffffffffffffffffff1673ffffffffffffffffffffffffffffffffffffffff16815260200190815260200160002054610d5290919063ffffffff16565b6000808473ffffffffffffffffffffffffffffffffffffffff1673ffffffffffffffffffffffffffffffffffffffff168152602001908152602001600020819055508173ffffffffffffffffffffffffffffffffffffffff168373ffffffffffffffffffffffffffffffffffffffff167fddf252ad1be2c89b69c2b068fc378daa952ba7f163c4a11628f55a4df523b3ef83604051610cef919061155a565b60405180910390a3505050565b600082821115610d41576040517f08c379a0000000000000000000000000000000000000000000000000000000008152600401610d389061149a565b60405180910390fd5b600082840390508091505092915050565b600080828401905083811015610d9d576040517f08c379a0000000000000000000000000000000000000000000000000000000008152600401610d949061147a565b60405180910390fd5b8091505092915050565b600073ffffffffffffffffffffffffffffffffffffffff168273ffffffffffffffffffffffffffffffffffffffff161415610e17576040517f08c379a0000000000000000000000000000000000000000000000000000000008152600401610e0e9061153a565b60405180910390fd5b610e2c81600254610d5290919063ffffffff16565b600281905550610e83816000808573ffffffffffffffffffffffffffffffffffffffff1673ffffffffffffffffffffffffffffffffffffffff16815260200190815260200160002054610d5290919063ffffffff16565b6000808473ffffffffffffffffffffffffffffffffffffffff1673ffffffffffffffffffffffffffffffffffffffff168152602001908152602001600020819055508173ffffffffffffffffffffffffffffffffffffffff16600073ffffffffffffffffffffffffffffffffffffffff167fddf252ad1be2c89b69c2b068fc378daa952ba7f163c4a11628f55a4df523b3ef83604051610f23919061155a565b60405180910390a35050565b600081359050610f3e81611645565b92915050565b600081359050610f538161165c565b92915050565b600060208284031215610f6b57600080fd5b6000610f7984828501610f2f565b91505092915050565b60008060408385031215610f9557600080fd5b6000610fa385828601610f2f565b9250506020610fb485828601610f2f565b9150509250929050565b600080600060608486031215610fd357600080fd5b6000610fe186828701610f2f565b9350506020610ff286828701610f2f565b925050604061100386828701610f44565b9150509250925092565b6000806040838503121561102057600080fd5b600061102e85828601610f2f565b925050602061103f85828601610f44565b9150509250929050565b611052816115ac565b82525050565b611061816115be565b82525050565b600061107282611590565b61107c818561159b565b935061108c818560208601611601565b61109581611634565b840191505092915050565b60006110ad60238361159b565b91507f45524332303a207472616e7366657220746f20746865207a65726f206164647260008301527f65737300000000000000000000000000000000000000000000000000000000006020830152604082019050919050565b600061111360228361159b565b91507f45524332303a20617070726f766520746f20746865207a65726f20616464726560008301527f73730000000000000000000000000000000000000000000000000000000000006020830152604082019050919050565b6000611179601b8361159b565b91507f536166654d6174683a206164646974696f6e206f766572666c6f7700000000006000830152602082019050919050565b60006111b9601e8361159b565b91507f536166654d6174683a207375627472616374696f6e206f766572666c6f7700006000830152602082019050919050565b60006111f960368361159b565b91507f4661726d756e6974793a3a6d696e743a204f6e6c79207468652072656769737460008301527f72792063616e206d696e74206e657720746f6b656e73000000000000000000006020830152604082019050919050565b600061125f60258361159b565b91507f45524332303a207472616e736665722066726f6d20746865207a65726f20616460008301527f64726573730000000000000000000000000000000000000000000000000000006020830152604082019050919050565b60006112c560248361159b565b91507f45524332303a20617070726f76652066726f6d20746865207a65726f2061646460008301527f72657373000000000000000000000000000000000000000000000000000000006020830152604082019050919050565b600061132b60258361159b565b91507f4661726d756e6974793a3a6d696e743a20457863656564732066696e616c207360008301527f7570706c790000000000000000000000000000000000000000000000000000006020830152604082019050919050565b6000611391601f8361159b565b91507f45524332303a206d696e7420746f20746865207a65726f2061646472657373006000830152602082019050919050565b6113cd816115ea565b82525050565b6113dc816115f4565b82525050565b60006020820190506113f76000830184611049565b92915050565b60006020820190506114126000830184611058565b92915050565b600060208201905081810360008301526114328184611067565b905092915050565b60006020820190508181036000830152611453816110a0565b9050919050565b6000602082019050818103600083015261147381611106565b9050919050565b600060208201905081810360008301526114938161116c565b9050919050565b600060208201905081810360008301526114b3816111ac565b9050919050565b600060208201905081810360008301526114d3816111ec565b9050919050565b600060208201905081810360008301526114f381611252565b9050919050565b60006020820190508181036000830152611513816112b8565b9050919050565b600060208201905081810360008301526115338161131e565b9050919050565b6000602082019050818103600083015261155381611384565b9050919050565b600060208201905061156f60008301846113c4565b92915050565b600060208201905061158a60008301846113d3565b92915050565b600081519050919050565b600082825260208201905092915050565b60006115b7826115ca565b9050919050565b60008115159050919050565b600073ffffffffffffffffffffffffffffffffffffffff82169050919050565b6000819050919050565b600060ff82169050919050565b60005b8381101561161f578082015181840152602081019050611604565b8381111561162e576000848401525b50505050565b6000601f19601f8301169050919050565b61164e816115ac565b811461165957600080fd5b50565b611665816115ea565b811461167057600080fd5b5056fea265627a7a723058203bf21fa63282fca4a6f2699757e1d0d3ec7940ad75834afd356b859c5f66bc456c6578706572696d656e74616cf50037",
  "source": "pragma solidity 0.5.8;\npragma experimental ABIEncoderV2;\n\nimport { ERC20 } from \"../node_modules/openzeppelin-solidity/contracts/token/ERC20/ERC20.sol\";\n\ncontract Farmunity is ERC20 {\n\n    string public constant name = \"Farmunity\";\n    string public constant symbol = \"HUM\";\n    uint8 public constant decimals = 18;\n    string public version = \"1.0.0\";\n\n    uint public constant INITIAL_SUPPLY = 25000000e18; // 25 million\n    uint public constant FINAL_SUPPLY = 100000000e18; // 100 million\n\n    address public registry;\n\n    constructor(address _registry) public {\n        registry = _registry;\n        _mint(msg.sender, INITIAL_SUPPLY);\n    }\n\n    function mint(address account, uint256 value) public {\n        require(msg.sender == registry, \"Farmunity::mint: Only the registry can mint new tokens\");\n        require(totalSupply().add(value) <= FINAL_SUPPLY, \"Farmunity::mint: Exceeds final supply\");\n\n        _mint(account, value);\n    }\n\n}",
  "sourcePath": "/Users/jlwaugh/Desktop/farmunity/contracts/Farmunity.sol",
  "compiler": {
    "name": "solc",
    "version": "0.5.8+commit.23d335f2.Emscripten.clang"
  },
  "schemaVersion": "3.0.16",
  "updatedAt": "2019-09-22T12:44:03.923Z",
  "devdoc": {
    "methods": {
      "allowance(address,address)": {
        "details": "See `IERC20.allowance`."
      },
      "approve(address,uint256)": {
        "details": "See `IERC20.approve`.     * Requirements:     * - `spender` cannot be the zero address."
      },
      "balanceOf(address)": {
        "details": "See `IERC20.balanceOf`."
      },
      "decreaseAllowance(address,uint256)": {
        "details": "Atomically decreases the allowance granted to `spender` by the caller.     * This is an alternative to `approve` that can be used as a mitigation for problems described in `IERC20.approve`.     * Emits an `Approval` event indicating the updated allowance.     * Requirements:     * - `spender` cannot be the zero address. - `spender` must have allowance for the caller of at least `subtractedValue`."
      },
      "increaseAllowance(address,uint256)": {
        "details": "Atomically increases the allowance granted to `spender` by the caller.     * This is an alternative to `approve` that can be used as a mitigation for problems described in `IERC20.approve`.     * Emits an `Approval` event indicating the updated allowance.     * Requirements:     * - `spender` cannot be the zero address."
      },
      "totalSupply()": {
        "details": "See `IERC20.totalSupply`."
      },
      "transfer(address,uint256)": {
        "details": "See `IERC20.transfer`.     * Requirements:     * - `recipient` cannot be the zero address. - the caller must have a balance of at least `amount`."
      },
      "transferFrom(address,address,uint256)": {
        "details": "See `IERC20.transferFrom`.     * Emits an `Approval` event indicating the updated allowance. This is not required by the EIP. See the note at the beginning of `ERC20`;     * Requirements: - `sender` and `recipient` cannot be the zero address. - `sender` must have a balance of at least `value`. - the caller must have allowance for `sender`'s tokens of at least `amount`."
      }
    }
  },
  "userdoc": {
    "methods": {}
  }
}