{
  "contractName": "Governance",
  "abi": [
    {
      "constant": true,
      "inputs": [
        {
          "name": "",
          "type": "uint256"
        }
      ],
      "name": "proposals",
      "outputs": [
        {
          "name": "result",
          "type": "uint8"
        },
        {
          "name": "target",
          "type": "address"
        },
        {
          "name": "data",
          "type": "bytes"
        },
        {
          "name": "proposer",
          "type": "address"
        },
        {
          "name": "feeRecipient",
          "type": "address"
        },
        {
          "name": "fee",
          "type": "uint256"
        },
        {
          "name": "startTime",
          "type": "uint256"
        },
        {
          "name": "yesCount",
          "type": "uint256"
        },
        {
          "name": "noCount",
          "type": "uint256"
        }
      ],
      "payable": false,
      "stateMutability": "view",
      "type": "function"
    },
    {
      "constant": true,
      "inputs": [
        {
          "name": "",
          "type": "uint256"
        },
        {
          "name": "",
          "type": "address"
        }
      ],
      "name": "yesVotes",
      "outputs": [
        {
          "name": "",
          "type": "uint256"
        }
      ],
      "payable": false,
      "stateMutability": "view",
      "type": "function"
    },
    {
      "constant": true,
      "inputs": [],
      "name": "OPEN_VOTE_PERIOD",
      "outputs": [
        {
          "name": "",
          "type": "uint256"
        }
      ],
      "payable": false,
      "stateMutability": "view",
      "type": "function"
    },
    {
      "constant": true,
      "inputs": [],
      "name": "TOTAL_VOTE_PERIOD",
      "outputs": [
        {
          "name": "",
          "type": "uint256"
        }
      ],
      "payable": false,
      "stateMutability": "view",
      "type": "function"
    },
    {
      "constant": true,
      "inputs": [],
      "name": "void",
      "outputs": [
        {
          "name": "",
          "type": "address"
        }
      ],
      "payable": false,
      "stateMutability": "view",
      "type": "function"
    },
    {
      "constant": true,
      "inputs": [
        {
          "name": "",
          "type": "address"
        }
      ],
      "name": "withdrawTimes",
      "outputs": [
        {
          "name": "",
          "type": "uint256"
        }
      ],
      "payable": false,
      "stateMutability": "view",
      "type": "function"
    },
    {
      "constant": true,
      "inputs": [],
      "name": "proposalFee",
      "outputs": [
        {
          "name": "",
          "type": "uint256"
        }
      ],
      "payable": false,
      "stateMutability": "view",
      "type": "function"
    },
    {
      "constant": true,
      "inputs": [
        {
          "name": "",
          "type": "uint256"
        },
        {
          "name": "",
          "type": "address"
        }
      ],
      "name": "noVotes",
      "outputs": [
        {
          "name": "",
          "type": "uint256"
        }
      ],
      "payable": false,
      "stateMutability": "view",
      "type": "function"
    },
    {
      "constant": true,
      "inputs": [],
      "name": "VETO_PERIOD",
      "outputs": [
        {
          "name": "",
          "type": "uint256"
        }
      ],
      "payable": false,
      "stateMutability": "view",
      "type": "function"
    },
    {
      "constant": true,
      "inputs": [],
      "name": "token",
      "outputs": [
        {
          "name": "",
          "type": "address"
        }
      ],
      "payable": false,
      "stateMutability": "view",
      "type": "function"
    },
    {
      "constant": true,
      "inputs": [
        {
          "name": "",
          "type": "address"
        }
      ],
      "name": "deposits",
      "outputs": [
        {
          "name": "",
          "type": "uint256"
        }
      ],
      "payable": false,
      "stateMutability": "view",
      "type": "function"
    },
    {
      "inputs": [
        {
          "name": "_token",
          "type": "address"
        },
        {
          "name": "_initialProposalFee",
          "type": "uint256"
        }
      ],
      "payable": false,
      "stateMutability": "nonpayable",
      "type": "constructor"
    },
    {
      "anonymous": false,
      "inputs": [
        {
          "indexed": true,
          "name": "proposalId",
          "type": "uint256"
        }
      ],
      "name": "Execute",
      "type": "event"
    },
    {
      "anonymous": false,
      "inputs": [
        {
          "indexed": true,
          "name": "proposalId",
          "type": "uint256"
        },
        {
          "indexed": true,
          "name": "proposer",
          "type": "address"
        },
        {
          "indexed": true,
          "name": "target",
          "type": "address"
        },
        {
          "indexed": false,
          "name": "data",
          "type": "bytes"
        }
      ],
      "name": "Propose",
      "type": "event"
    },
    {
      "anonymous": false,
      "inputs": [
        {
          "indexed": true,
          "name": "proposalId",
          "type": "uint256"
        },
        {
          "indexed": true,
          "name": "voter",
          "type": "address"
        }
      ],
      "name": "RemoveVote",
      "type": "event"
    },
    {
      "anonymous": false,
      "inputs": [
        {
          "indexed": true,
          "name": "proposalId",
          "type": "uint256"
        }
      ],
      "name": "Terminate",
      "type": "event"
    },
    {
      "anonymous": false,
      "inputs": [
        {
          "indexed": true,
          "name": "proposalId",
          "type": "uint256"
        },
        {
          "indexed": true,
          "name": "voter",
          "type": "address"
        },
        {
          "indexed": false,
          "name": "approve",
          "type": "bool"
        },
        {
          "indexed": false,
          "name": "weight",
          "type": "uint256"
        }
      ],
      "name": "Vote",
      "type": "event"
    },
    {
      "constant": false,
      "inputs": [
        {
          "name": "amount",
          "type": "uint256"
        }
      ],
      "name": "deposit",
      "outputs": [],
      "payable": false,
      "stateMutability": "nonpayable",
      "type": "function"
    },
    {
      "constant": false,
      "inputs": [
        {
          "name": "amount",
          "type": "uint256"
        }
      ],
      "name": "withdraw",
      "outputs": [],
      "payable": false,
      "stateMutability": "nonpayable",
      "type": "function"
    },
    {
      "constant": false,
      "inputs": [
        {
          "name": "target",
          "type": "address"
        },
        {
          "name": "data",
          "type": "bytes"
        }
      ],
      "name": "propose",
      "outputs": [
        {
          "name": "",
          "type": "uint256"
        }
      ],
      "payable": false,
      "stateMutability": "nonpayable",
      "type": "function"
    },
    {
      "constant": false,
      "inputs": [
        {
          "name": "feeRecipient",
          "type": "address"
        },
        {
          "name": "target",
          "type": "address"
        },
        {
          "name": "data",
          "type": "bytes"
        }
      ],
      "name": "proposeWithFeeRecipient",
      "outputs": [
        {
          "name": "",
          "type": "uint256"
        }
      ],
      "payable": false,
      "stateMutability": "nonpayable",
      "type": "function"
    },
    {
      "constant": false,
      "inputs": [
        {
          "name": "proposalId",
          "type": "uint256"
        }
      ],
      "name": "voteYes",
      "outputs": [],
      "payable": false,
      "stateMutability": "nonpayable",
      "type": "function"
    },
    {
      "constant": false,
      "inputs": [
        {
          "name": "proposalId",
          "type": "uint256"
        }
      ],
      "name": "voteNo",
      "outputs": [],
      "payable": false,
      "stateMutability": "nonpayable",
      "type": "function"
    },
    {
      "constant": false,
      "inputs": [
        {
          "name": "proposalId",
          "type": "uint256"
        }
      ],
      "name": "removeVote",
      "outputs": [],
      "payable": false,
      "stateMutability": "nonpayable",
      "type": "function"
    },
    {
      "constant": false,
      "inputs": [
        {
          "name": "proposalId",
          "type": "uint256"
        }
      ],
      "name": "finalize",
      "outputs": [],
      "payable": false,
      "stateMutability": "nonpayable",
      "type": "function"
    },
    {
      "constant": false,
      "inputs": [
        {
          "name": "fee",
          "type": "uint256"
        }
      ],
      "name": "setProposalFee",
      "outputs": [],
      "payable": false,
      "stateMutability": "nonpayable",
      "type": "function"
    },
    {
      "constant": true,
      "inputs": [],
      "name": "time",
      "outputs": [
        {
          "name": "",
          "type": "uint256"
        }
      ],
      "payable": false,
      "stateMutability": "view",
      "type": "function"
    },
    {
      "constant": true,
      "inputs": [
        {
          "name": "proposalId",
          "type": "uint256"
        }
      ],
      "name": "getProposal",
      "outputs": [
        {
          "components": [
            {
              "name": "result",
              "type": "uint8"
            },
            {
              "name": "target",
              "type": "address"
            },
            {
              "name": "data",
              "type": "bytes"
            },
            {
              "name": "proposer",
              "type": "address"
            },
            {
              "name": "feeRecipient",
              "type": "address"
            },
            {
              "name": "fee",
              "type": "uint256"
            },
            {
              "name": "startTime",
              "type": "uint256"
            },
            {
              "name": "yesCount",
              "type": "uint256"
            },
            {
              "name": "noCount",
              "type": "uint256"
            }
          ],
          "name": "",
          "type": "tuple"
        }
      ],
      "payable": false,
      "stateMutability": "view",
      "type": "function"
    },
    {
      "constant": true,
      "inputs": [],
      "name": "getProposalsCount",
      "outputs": [
        {
          "name": "",
          "type": "uint256"
        }
      ],
      "payable": false,
      "stateMutability": "view",
      "type": "function"
    }
  ],
  "bytecode": "0x60806040523480156200001157600080fd5b506040516040806200385983398101806040526200003391908101906200012a565b81600160006101000a81548173ffffffffffffffffffffffffffffffffffffffff021916908373ffffffffffffffffffffffffffffffffffffffff160217905550806000819055506040516200008990620000ef565b604051809103906000f080158015620000a6573d6000803e3d6000fd5b50600260006101000a81548173ffffffffffffffffffffffffffffffffffffffff021916908373ffffffffffffffffffffffffffffffffffffffff1602179055505050620001f1565b6052806200380783390190565b6000815190506200010d81620001bd565b92915050565b6000815190506200012481620001d7565b92915050565b600080604083850312156200013e57600080fd5b60006200014e85828601620000fc565b9250506020620001618582860162000113565b9150509250929050565b6000620001788262000193565b9050919050565b60006200018c826200016b565b9050919050565b600073ffffffffffffffffffffffffffffffffffffffff82169050919050565b6000819050919050565b620001c8816200017f565b8114620001d457600080fd5b50565b620001e281620001b3565b8114620001ee57600080fd5b50565b61360680620002016000396000f3fe608060405234801561001057600080fd5b506004361061014d5760003560e01c806398e527d3116100c3578063c7f758a81161007c578063c7f758a814610392578063da5c5b55146103c2578063e3c3b200146103f2578063e861dc8514610422578063fc0c546a14610440578063fc7e286d1461045e5761014d565b806398e527d3146102bc5780639d481848146102da578063ac4c25b21461030a578063ad22132114610328578063b6b55f2514610358578063c27cabb5146103745761014d565b80631a6f7be5116101155780631a6f7be5146102105780632e1a7d4d1461022c5780633f68fde4146102485780635d9dacb5146102645780636a1cf721146102825780637c64a45c1461029e5761014d565b8063013cf08b1461015257806305261aea1461018a5780630bc43490146101a657806310bf5068146101d657806316ada547146101f2575b600080fd5b61016c60048036036101679190810190612454565b61048e565b6040516101819998979695949392919061304c565b60405180910390f35b6101a4600480360361019f9190810190612454565b6105ee565b005b6101c060048036036101bb919081019061247d565b610ab7565b6040516101cd9190613362565b60405180910390f35b6101f060048036036101eb9190810190612454565b610adc565b005b6101fa610b54565b6040516102079190613362565b60405180910390f35b61022a60048036036102259190810190612454565b610b5c565b005b61024660048036036102419190810190612454565b610ffb565b005b610262600480360361025d9190810190612454565b611209565b005b61026c6114c5565b6040516102799190613362565b60405180910390f35b61029c60048036036102979190810190612454565b6114cc565b005b6102a66117ab565b6040516102b39190613362565b60405180910390f35b6102c46117b4565b6040516102d19190613362565b60405180910390f35b6102f460048036036102ef91908101906123d7565b6117c1565b6040516103019190613362565b60405180910390f35b6103126117d6565b60405161031f9190613031565b60405180910390f35b610342600480360361033d9190810190612347565b6117fc565b60405161034f9190613362565b60405180910390f35b610372600480360361036d9190810190612454565b611814565b005b61037c61199c565b6040516103899190613362565b60405180910390f35b6103ac60048036036103a79190810190612454565b6119a2565b6040516103b99190613340565b60405180910390f35b6103dc60048036036103d7919081019061247d565b611bd1565b6040516103e99190613362565b60405180910390f35b61040c60048036036104079190810190612370565b611bf6565b6040516104199190613362565b60405180910390f35b61042a612086565b6040516104379190613362565b60405180910390f35b61044861208d565b6040516104559190613016565b60405180910390f35b61047860048036036104739190810190612347565b6120b3565b6040516104859190613362565b60405180910390f35b6003818154811061049b57fe5b90600052602060002090600802016000915090508060000160009054906101000a900460ff16908060000160019054906101000a900473ffffffffffffffffffffffffffffffffffffffff1690806001018054600181600116156101000203166002900480601f0160208091040260200160405190810160405280929190818152602001828054600181600116156101000203166002900480156105805780601f1061055557610100808354040283529160200191610580565b820191906000526020600020905b81548152906001019060200180831161056357829003601f168201915b5050505050908060020160009054906101000a900473ffffffffffffffffffffffffffffffffffffffff16908060030160009054906101000a900473ffffffffffffffffffffffffffffffffffffffff16908060040154908060050154908060060154908060070154905089565b6000600382815481106105fd57fe5b906000526020600020906008020190506000600281111561061a57fe5b8160000160009054906101000a900460ff16600281111561063757fe5b14610677576040517f08c379a000000000000000000000000000000000000000000000000000000000815260040161066e906132c0565b60405180910390fd5b6000610681610b54565b90508160070154826006015411156108ef576106af6202a300800183600501546120cb90919063ffffffff16565b81116106f0576040517f08c379a00000000000000000000000000000000000000000000000000000000081526004016106e790613260565b60405180910390fd5b60018260000160006101000a81548160ff0219169083600281111561071157fe5b0217905550600160009054906101000a900473ffffffffffffffffffffffffffffffffffffffff1673ffffffffffffffffffffffffffffffffffffffff1663a9059cbb8360030160009054906101000a900473ffffffffffffffffffffffffffffffffffffffff1684600401546040518363ffffffff1660e01b815260040161079b929190612fa2565b602060405180830381600087803b1580156107b557600080fd5b505af11580156107c9573d6000803e3d6000fd5b505050506040513d601f19601f820116820180604052506107ed919081019061242b565b61082c576040517f08c379a000000000000000000000000000000000000000000000000000000000815260040161082390613100565b60405180910390fd5b8160000160019054906101000a900473ffffffffffffffffffffffffffffffffffffffff1673ffffffffffffffffffffffffffffffffffffffff16826001016040516108789190612f2b565b6000604051808303816000865af19150503d80600081146108b5576040519150601f19603f3d011682016040523d82523d6000602084013e6108ba565b606091505b505050827fddb556f1d2c1ec821e910b019d3685b229db152a0ecd517ca7e24b8bd713928960405160405180910390a2610ab2565b6109096202a30083600501546120cb90919063ffffffff16565b811161094a576040517f08c379a0000000000000000000000000000000000000000000000000000000008152600401610941906132a0565b60405180910390fd5b60028260000160006101000a81548160ff0219169083600281111561096b57fe5b0217905550600160009054906101000a900473ffffffffffffffffffffffffffffffffffffffff1673ffffffffffffffffffffffffffffffffffffffff1663a9059cbb600260009054906101000a900473ffffffffffffffffffffffffffffffffffffffff1684600401546040518363ffffffff1660e01b81526004016109f3929190612fa2565b602060405180830381600087803b158015610a0d57600080fd5b505af1158015610a21573d6000803e3d6000fd5b505050506040513d601f19601f82011682018060405250610a45919081019061242b565b610a84576040517f08c379a0000000000000000000000000000000000000000000000000000000008152600401610a7b906132e0565b60405180910390fd5b827fd681175168470800567b22d50d831df189686adc5b155827823a5ada6a97a4fe60405160405180910390a25b505050565b6004602052816000526040600020602052806000526040600020600091509150505481565b3073ffffffffffffffffffffffffffffffffffffffff163373ffffffffffffffffffffffffffffffffffffffff1614610b4a576040517f08c379a0000000000000000000000000000000000000000000000000000000008152600401610b4190613140565b60405180910390fd5b8060008190555050565b600042905090565b600060038281548110610b6b57fe5b9060005260206000209060080201905060006002811115610b8857fe5b8160000160009054906101000a900460ff166002811115610ba557fe5b14610be5576040517f08c379a0000000000000000000000000000000000000000000000000000000008152600401610bdc90613240565b60405180910390fd5b6000610c036202a300800183600501546120cb90919063ffffffff16565b90506000610c0f610b54565b905081811115610c54576040517f08c379a0000000000000000000000000000000000000000000000000000000008152600401610c4b90613300565b60405180910390fd5b6000600660003373ffffffffffffffffffffffffffffffffffffffff1673ffffffffffffffffffffffffffffffffffffffff1681526020019081526020016000205490506000610cfd6005600088815260200190815260200160002060003373ffffffffffffffffffffffffffffffffffffffff1673ffffffffffffffffffffffffffffffffffffffff168152602001908152602001600020548361212090919063ffffffff16565b9050610d168186600701546120cb90919063ffffffff16565b8560070181905550816005600088815260200190815260200160002060003373ffffffffffffffffffffffffffffffffffffffff1673ffffffffffffffffffffffffffffffffffffffff168152602001908152602001600020819055503373ffffffffffffffffffffffffffffffffffffffff16867f88d35328232823f54954b6627e9f732371656f6daa40cb1b01b27dc7875a7b47600084604051610dbd929190612fcb565b60405180910390a3610ddf6202a30086600501546120cb90919063ffffffff16565b83118015610df557508460060154856007015410155b15610f665760028560000160006101000a81548160ff02191690836002811115610e1b57fe5b0217905550600160009054906101000a900473ffffffffffffffffffffffffffffffffffffffff1673ffffffffffffffffffffffffffffffffffffffff1663a9059cbb600260009054906101000a900473ffffffffffffffffffffffffffffffffffffffff1687600401546040518363ffffffff1660e01b8152600401610ea3929190612fa2565b602060405180830381600087803b158015610ebd57600080fd5b505af1158015610ed1573d6000803e3d6000fd5b505050506040513d601f19601f82011682018060405250610ef5919081019061242b565b610f34576040517f08c379a0000000000000000000000000000000000000000000000000000000008152600401610f2b906131e0565b60405180910390fd5b857fd681175168470800567b22d50d831df189686adc5b155827823a5ada6a97a4fe60405160405180910390a2610ff3565b600760003373ffffffffffffffffffffffffffffffffffffffff1673ffffffffffffffffffffffffffffffffffffffff16815260200190815260200160002054841115610ff25783600760003373ffffffffffffffffffffffffffffffffffffffff1673ffffffffffffffffffffffffffffffffffffffff168152602001908152602001600020819055505b5b505050505050565b600760003373ffffffffffffffffffffffffffffffffffffffff1673ffffffffffffffffffffffffffffffffffffffff16815260200190815260200160002054611043610b54565b11611083576040517f08c379a000000000000000000000000000000000000000000000000000000000815260040161107a906130e0565b60405180910390fd5b6110d581600660003373ffffffffffffffffffffffffffffffffffffffff1673ffffffffffffffffffffffffffffffffffffffff1681526020019081526020016000205461212090919063ffffffff16565b600660003373ffffffffffffffffffffffffffffffffffffffff1673ffffffffffffffffffffffffffffffffffffffff16815260200190815260200160002081905550600160009054906101000a900473ffffffffffffffffffffffffffffffffffffffff1673ffffffffffffffffffffffffffffffffffffffff1663a9059cbb33836040518363ffffffff1660e01b8152600401611175929190612f79565b602060405180830381600087803b15801561118f57600080fd5b505af11580156111a3573d6000803e3d6000fd5b505050506040513d601f19601f820116820180604052506111c7919081019061242b565b611206576040517f08c379a00000000000000000000000000000000000000000000000000000000081526004016111fd906131a0565b60405180910390fd5b50565b60006003828154811061121857fe5b906000526020600020906008020190506000600281111561123557fe5b8160000160009054906101000a900460ff16600281111561125257fe5b14611292576040517f08c379a000000000000000000000000000000000000000000000000000000000815260040161128990613120565b60405180910390fd5b6112ae6202a300800182600501546120cb90919063ffffffff16565b6112b6610b54565b11156112f7576040517f08c379a00000000000000000000000000000000000000000000000000000000081526004016112ee90613180565b60405180910390fd5b61135e6004600084815260200190815260200160002060003373ffffffffffffffffffffffffffffffffffffffff1673ffffffffffffffffffffffffffffffffffffffff16815260200190815260200160002054826006015461212090919063ffffffff16565b81600601819055506113cd6005600084815260200190815260200160002060003373ffffffffffffffffffffffffffffffffffffffff1673ffffffffffffffffffffffffffffffffffffffff16815260200190815260200160002054826007015461212090919063ffffffff16565b81600701819055506004600083815260200190815260200160002060003373ffffffffffffffffffffffffffffffffffffffff1673ffffffffffffffffffffffffffffffffffffffff168152602001908152602001600020600090556005600083815260200190815260200160002060003373ffffffffffffffffffffffffffffffffffffffff1673ffffffffffffffffffffffffffffffffffffffff168152602001908152602001600020600090553373ffffffffffffffffffffffffffffffffffffffff16827f3676c1fca38c63566d0cbf07d561c0db78a4cc1f64d3d929ef452bfef41a3d0660405160405180910390a35050565b6202a30081565b6000600382815481106114db57fe5b906000526020600020906008020190506115056202a30082600501546120cb90919063ffffffff16565b61150d610b54565b111561154e576040517f08c379a000000000000000000000000000000000000000000000000000000000815260040161154590613280565b60405180910390fd5b600061156c6202a300800183600501546120cb90919063ffffffff16565b9050600760003373ffffffffffffffffffffffffffffffffffffffff1673ffffffffffffffffffffffffffffffffffffffff168152602001908152602001600020548111156115fa5780600760003373ffffffffffffffffffffffffffffffffffffffff1673ffffffffffffffffffffffffffffffffffffffff168152602001908152602001600020819055505b600061169e6004600086815260200190815260200160002060003373ffffffffffffffffffffffffffffffffffffffff1673ffffffffffffffffffffffffffffffffffffffff16815260200190815260200160002054600660003373ffffffffffffffffffffffffffffffffffffffff1673ffffffffffffffffffffffffffffffffffffffff1681526020019081526020016000205461212090919063ffffffff16565b90506116b78184600601546120cb90919063ffffffff16565b8360060181905550600660003373ffffffffffffffffffffffffffffffffffffffff1673ffffffffffffffffffffffffffffffffffffffff168152602001908152602001600020546004600086815260200190815260200160002060003373ffffffffffffffffffffffffffffffffffffffff1673ffffffffffffffffffffffffffffffffffffffff168152602001908152602001600020819055503373ffffffffffffffffffffffffffffffffffffffff16847f88d35328232823f54954b6627e9f732371656f6daa40cb1b01b27dc7875a7b4760018460405161179d929190612fcb565b60405180910390a350505050565b6202a300800181565b6000600380549050905090565b60006117ce338484611bf6565b905092915050565b600260009054906101000a900473ffffffffffffffffffffffffffffffffffffffff1681565b60076020528060005260406000206000915090505481565b600160009054906101000a900473ffffffffffffffffffffffffffffffffffffffff1673ffffffffffffffffffffffffffffffffffffffff166323b872dd3330846040518463ffffffff1660e01b815260040161187393929190612f42565b602060405180830381600087803b15801561188d57600080fd5b505af11580156118a1573d6000803e3d6000fd5b505050506040513d601f19601f820116820180604052506118c5919081019061242b565b611904576040517f08c379a00000000000000000000000000000000000000000000000000000000081526004016118fb90613220565b60405180910390fd5b61195681600660003373ffffffffffffffffffffffffffffffffffffffff1673ffffffffffffffffffffffffffffffffffffffff168152602001908152602001600020546120cb90919063ffffffff16565b600660003373ffffffffffffffffffffffffffffffffffffffff1673ffffffffffffffffffffffffffffffffffffffff1681526020019081526020016000208190555050565b60005481565b6119aa612176565b600382815481106119b757fe5b9060005260206000209060080201604051806101200160405290816000820160009054906101000a900460ff1660028111156119ef57fe5b60028111156119fa57fe5b81526020016000820160019054906101000a900473ffffffffffffffffffffffffffffffffffffffff1673ffffffffffffffffffffffffffffffffffffffff1673ffffffffffffffffffffffffffffffffffffffff168152602001600182018054600181600116156101000203166002900480601f016020809104026020016040519081016040528092919081815260200182805460018160011615610100020316600290048015611aed5780601f10611ac257610100808354040283529160200191611aed565b820191906000526020600020905b815481529060010190602001808311611ad057829003601f168201915b505050505081526020016002820160009054906101000a900473ffffffffffffffffffffffffffffffffffffffff1673ffffffffffffffffffffffffffffffffffffffff1673ffffffffffffffffffffffffffffffffffffffff1681526020016003820160009054906101000a900473ffffffffffffffffffffffffffffffffffffffff1673ffffffffffffffffffffffffffffffffffffffff1673ffffffffffffffffffffffffffffffffffffffff1681526020016004820154815260200160058201548152602001600682015481526020016007820154815250509050919050565b6005602052816000526040600020602052806000526040600020600091509150505481565b60003073ffffffffffffffffffffffffffffffffffffffff163373ffffffffffffffffffffffffffffffffffffffff1614158015611c825750600160009054906101000a900473ffffffffffffffffffffffffffffffffffffffff1673ffffffffffffffffffffffffffffffffffffffff168373ffffffffffffffffffffffffffffffffffffffff1614155b611cc1576040517f08c379a0000000000000000000000000000000000000000000000000000000008152600401611cb890613320565b60405180910390fd5b600160009054906101000a900473ffffffffffffffffffffffffffffffffffffffff1673ffffffffffffffffffffffffffffffffffffffff166323b872dd33306000546040518463ffffffff1660e01b8152600401611d2293929190612f42565b602060405180830381600087803b158015611d3c57600080fd5b505af1158015611d50573d6000803e3d6000fd5b505050506040513d601f19601f82011682018060405250611d74919081019061242b565b611db3576040517f08c379a0000000000000000000000000000000000000000000000000000000008152600401611daa906131c0565b60405180910390fd5b60006003805490509050611dc5612176565b84816020019073ffffffffffffffffffffffffffffffffffffffff16908173ffffffffffffffffffffffffffffffffffffffff168152505083816040018190525033816060019073ffffffffffffffffffffffffffffffffffffffff16908173ffffffffffffffffffffffffffffffffffffffff168152505085816080019073ffffffffffffffffffffffffffffffffffffffff16908173ffffffffffffffffffffffffffffffffffffffff16815250506000548160a0018181525050611e8a610b54565b8160c00181815250506000548160e00181815250506003819080600181540180825580915050906001820390600052602060002090600802016000909192909190915060008201518160000160006101000a81548160ff02191690836002811115611ef157fe5b021790555060208201518160000160016101000a81548173ffffffffffffffffffffffffffffffffffffffff021916908373ffffffffffffffffffffffffffffffffffffffff1602179055506040820151816001019080519060200190611f5992919061220f565b5060608201518160020160006101000a81548173ffffffffffffffffffffffffffffffffffffffff021916908373ffffffffffffffffffffffffffffffffffffffff16021790555060808201518160030160006101000a81548173ffffffffffffffffffffffffffffffffffffffff021916908373ffffffffffffffffffffffffffffffffffffffff16021790555060a0820151816004015560c0820151816005015560e0820151816006015561010082015181600701555050508473ffffffffffffffffffffffffffffffffffffffff163373ffffffffffffffffffffffffffffffffffffffff16837f2f162bd58e5254c884a7cbc5409e7e1d4f69b18801f19b8502365fc82b0c1996876040516120729190612ff4565b60405180910390a481925050509392505050565b6202a30081565b600160009054906101000a900473ffffffffffffffffffffffffffffffffffffffff1681565b60066020528060005260406000206000915090505481565b600080828401905083811015612116576040517f08c379a000000000000000000000000000000000000000000000000000000000815260040161210d90613160565b60405180910390fd5b8091505092915050565b600082821115612165576040517f08c379a000000000000000000000000000000000000000000000000000000000815260040161215c90613200565b60405180910390fd5b600082840390508091505092915050565b6040518061012001604052806000600281111561218f57fe5b8152602001600073ffffffffffffffffffffffffffffffffffffffff16815260200160608152602001600073ffffffffffffffffffffffffffffffffffffffff168152602001600073ffffffffffffffffffffffffffffffffffffffff168152602001600081526020016000815260200160008152602001600081525090565b828054600181600116156101000203166002900490600052602060002090601f016020900481019282601f1061225057805160ff191683800117855561227e565b8280016001018555821561227e579182015b8281111561227d578251825591602001919060010190612262565b5b50905061228b919061228f565b5090565b6122b191905b808211156122ad576000816000905550600101612295565b5090565b90565b6000813590506122c381613587565b92915050565b6000815190506122d88161359e565b92915050565b600082601f8301126122ef57600080fd5b81356123026122fd826133aa565b61337d565b9150808252602083016020830185838301111561231e57600080fd5b612329838284613527565b50505092915050565b600081359050612341816135b5565b92915050565b60006020828403121561235957600080fd5b6000612367848285016122b4565b91505092915050565b60008060006060848603121561238557600080fd5b6000612393868287016122b4565b93505060206123a4868287016122b4565b925050604084013567ffffffffffffffff8111156123c157600080fd5b6123cd868287016122de565b9150509250925092565b600080604083850312156123ea57600080fd5b60006123f8858286016122b4565b925050602083013567ffffffffffffffff81111561241557600080fd5b612421858286016122de565b9150509250929050565b60006020828403121561243d57600080fd5b600061244b848285016122c9565b91505092915050565b60006020828403121561246657600080fd5b600061247484828501612332565b91505092915050565b6000806040838503121561249057600080fd5b600061249e85828601612332565b92505060206124af858286016122b4565b9150509250929050565b6124c281613497565b82525050565b6124d18161343c565b82525050565b6124e08161343c565b82525050565b6124ef8161344e565b82525050565b6000612500826133f3565b61250a818561340f565b935061251a818560208601613536565b61252381613569565b840191505092915050565b6000612539826133e8565b61254381856133fe565b9350612553818560208601613536565b61255c81613569565b840191505092915050565b6000612572826133e8565b61257c818561340f565b935061258c818560208601613536565b61259581613569565b840191505092915050565b6000815460018116600081146125bd57600181146125e257612626565b607f60028304166125ce8187613420565b955060ff1983168652808601935050612626565b600282046125f08187613420565b95506125fb856133d6565b60005b8281101561261d578154818901526001820191506020810190506125fe565b82880195505050505b505092915050565b612637816134a9565b82525050565b612646816134cd565b82525050565b612655816134f1565b82525050565b612664816134f1565b82525050565b600061267760448361342b565b91507f476f7665726e616e63653a3a77697468647261773a20566f746572732077697460008301527f6820616e206163746976652070726f706f73616c2063616e6e6f74207769746860208301527f64726177000000000000000000000000000000000000000000000000000000006040830152606082019050919050565b600061270360308361342b565b91507f476f7665726e616e63653a3a66696e616c697a653a2052657475726e2070726f60008301527f706f73616c20666565206661696c6564000000000000000000000000000000006020830152604082019050919050565b600061276960358361342b565b91507f476f7665726e616e63653a3a72656d6f7665566f74653a2050726f706f73616c60008301527f20697320616c72656164792066696e616c697a656400000000000000000000006020830152604082019050919050565b60006127cf60478361342b565b91507f476f7665726e616e63653a3a73657450726f706f73616c4665653a2050726f7060008301527f6f73616c206665652063616e206f6e6c79206265207365742076696120676f7660208301527f65726e616e6365000000000000000000000000000000000000000000000000006040830152606082019050919050565b600061285b601b8361342b565b91507f536166654d6174683a206164646974696f6e206f766572666c6f7700000000006000830152602082019050919050565b600061289b603e8361342b565b91507f476f7665726e616e63653a3a72656d6f7665566f74653a2050726f706f73616c60008301527f206973206e6f206c6f6e67657220696e20766f74696e6720706572696f6400006020830152604082019050919050565b600061290160258361342b565b91507f476f7665726e616e63653a3a77697468647261773a205472616e73666572206660008301527f61696c65640000000000000000000000000000000000000000000000000000006020830152604082019050919050565b600061296760348361342b565b91507f476f7665726e616e63653a3a70726f706f73655769746846656552656369706960008301527f656e743a205472616e73666572206661696c65640000000000000000000000006020830152604082019050919050565b60006129cd602b8361342b565b91507f476f7665726e616e63653a3a766f74654e6f3a205472616e7366657220746f2060008301527f766f6964206661696c65640000000000000000000000000000000000000000006020830152604082019050919050565b6000612a33601e8361342b565b91507f536166654d6174683a207375627472616374696f6e206f766572666c6f7700006000830152602082019050919050565b6000612a7360248361342b565b91507f476f7665726e616e63653a3a6465706f7369743a205472616e7366657220666160008301527f696c6564000000000000000000000000000000000000000000000000000000006020830152604082019050919050565b6000612ad960318361342b565b91507f476f7665726e616e63653a3a766f74654e6f3a2050726f706f73616c2069732060008301527f616c72656164792066696e616c697a65640000000000000000000000000000006020830152604082019050919050565b6000612b3f604a8361342b565b91507f476f7665726e616e63653a3a66696e616c697a653a2050726f706f73616c206360008301527f616e6e6f7420626520657865637574656420756e74696c20656e64206f66207660208301527f65746f20706572696f64000000000000000000000000000000000000000000006040830152606082019050919050565b6000612bcb603e8361342b565b91507f476f7665726e616e63653a3a766f74655965733a2050726f706f73616c20697360008301527f206e6f206c6f6e67657220616363657074696e672079657320766f74657300006020830152604082019050919050565b6000612c3160508361342b565b91507f476f7665726e616e63653a3a66696e616c697a653a2050726f706f73616c206360008301527f616e6e6f74206265207465726d696e6174656420756e74696c20656e64206f6660208301527f2079657320766f746520706572696f64000000000000000000000000000000006040830152606082019050919050565b6000612cbd60338361342b565b91507f476f7665726e616e63653a3a66696e616c697a653a2050726f706f73616c206960008301527f7320616c72656164792066696e616c697a6564000000000000000000000000006020830152604082019050919050565b6000612d23602d8361342b565b91507f476f7665726e616e63653a3a66696e616c697a653a205472616e73666572207460008301527f6f20766f6964206661696c6564000000000000000000000000000000000000006020830152604082019050919050565b6000612d89603a8361342b565b91507f476f7665726e616e63653a3a766f74654e6f3a2050726f706f73616c2069732060008301527f6e6f206c6f6e67657220696e20766f74696e6720706572696f640000000000006020830152604082019050919050565b6000612def60358361342b565b91507f476f7665726e616e63653a3a70726f706f73655769746846656552656369706960008301527f656e743a20496e76616c69642070726f706f73616c00000000000000000000006020830152604082019050919050565b600061012083016000830151612e61600086018261264c565b506020830151612e7460208601826124c8565b5060408301518482036040860152612e8c828261252e565b9150506060830151612ea160608601826124c8565b506080830151612eb460808601826124c8565b5060a0830151612ec760a0860182612f0d565b5060c0830151612eda60c0860182612f0d565b5060e0830151612eed60e0860182612f0d565b50610100830151612f02610100860182612f0d565b508091505092915050565b612f168161348d565b82525050565b612f258161348d565b82525050565b6000612f3782846125a0565b915081905092915050565b6000606082019050612f5760008301866124b9565b612f6460208301856124d7565b612f716040830184612f1c565b949350505050565b6000604082019050612f8e60008301856124b9565b612f9b6020830184612f1c565b9392505050565b6000604082019050612fb760008301856124d7565b612fc46020830184612f1c565b9392505050565b6000604082019050612fe060008301856124e6565b612fed6020830184612f1c565b9392505050565b6000602082019050818103600083015261300e81846124f5565b905092915050565b600060208201905061302b600083018461262e565b92915050565b6000602082019050613046600083018461263d565b92915050565b600061012082019050613062600083018c61265b565b61306f602083018b6124d7565b8181036040830152613081818a612567565b905061309060608301896124d7565b61309d60808301886124d7565b6130aa60a0830187612f1c565b6130b760c0830186612f1c565b6130c460e0830185612f1c565b6130d2610100830184612f1c565b9a9950505050505050505050565b600060208201905081810360008301526130f98161266a565b9050919050565b60006020820190508181036000830152613119816126f6565b9050919050565b600060208201905081810360008301526131398161275c565b9050919050565b60006020820190508181036000830152613159816127c2565b9050919050565b600060208201905081810360008301526131798161284e565b9050919050565b600060208201905081810360008301526131998161288e565b9050919050565b600060208201905081810360008301526131b9816128f4565b9050919050565b600060208201905081810360008301526131d98161295a565b9050919050565b600060208201905081810360008301526131f9816129c0565b9050919050565b6000602082019050818103600083015261321981612a26565b9050919050565b6000602082019050818103600083015261323981612a66565b9050919050565b6000602082019050818103600083015261325981612acc565b9050919050565b6000602082019050818103600083015261327981612b32565b9050919050565b6000602082019050818103600083015261329981612bbe565b9050919050565b600060208201905081810360008301526132b981612c24565b9050919050565b600060208201905081810360008301526132d981612cb0565b9050919050565b600060208201905081810360008301526132f981612d16565b9050919050565b6000602082019050818103600083015261331981612d7c565b9050919050565b6000602082019050818103600083015261333981612de2565b9050919050565b6000602082019050818103600083015261335a8184612e48565b905092915050565b60006020820190506133776000830184612f1c565b92915050565b6000604051905081810181811067ffffffffffffffff821117156133a057600080fd5b8060405250919050565b600067ffffffffffffffff8211156133c157600080fd5b601f19601f8301169050602081019050919050565b60008160005260206000209050919050565b600081519050919050565b600081519050919050565b600082825260208201905092915050565b600082825260208201905092915050565b600081905092915050565b600082825260208201905092915050565b60006134478261346d565b9050919050565b60008115159050919050565b60008190506134688261357a565b919050565b600073ffffffffffffffffffffffffffffffffffffffff82169050919050565b6000819050919050565b60006134a282613503565b9050919050565b60006134b4826134bb565b9050919050565b60006134c68261346d565b9050919050565b60006134d8826134df565b9050919050565b60006134ea8261346d565b9050919050565b60006134fc8261345a565b9050919050565b600061350e82613515565b9050919050565b60006135208261346d565b9050919050565b82818337600083830152505050565b60005b83811015613554578082015181840152602081019050613539565b83811115613563576000848401525b50505050565b6000601f19601f8301169050919050565b6003811061358457fe5b50565b6135908161343c565b811461359b57600080fd5b50565b6135a78161344e565b81146135b257600080fd5b50565b6135be8161348d565b81146135c957600080fd5b5056fea265627a7a72305820ba45e74bb673c55ec6d3ca507c1fd520dff7ea0f25893649df88c6634b6da5046c6578706572696d656e74616cf500376080604052348015600f57600080fd5b50603580601d6000396000f3fe6080604052600080fdfea165627a7a7230582033d0fdef4ced362468327cc9e779f47b788dfbde56e776128005bd9fb37b24440029",
  "source": "pragma solidity 0.5.8;\npragma experimental ABIEncoderV2;\n\nimport { IERC20 } from \"node_modules/openzeppelin-solidity/contracts/token/ERC20/IERC20.sol\";\nimport { SafeMath } from \"node_modules/openzeppelin-solidity/contracts/math/SafeMath.sol\";\n\nimport { Void } from \"./Void.sol\";\n\ncontract Governance {\n    using SafeMath for uint;\n\n    event Execute(uint indexed proposalId);\n    event Propose(uint indexed proposalId, address indexed proposer, address indexed target, bytes data);\n    event RemoveVote(uint indexed proposalId, address indexed voter);\n    event Terminate(uint indexed proposalId);\n    event Vote(uint indexed proposalId, address indexed voter, bool approve, uint weight);\n\n    enum Result { Pending, Yes, No }\n\n    struct Proposal {\n        Result result;\n        address target;\n        bytes data;\n        address proposer;\n        address feeRecipient;\n        uint fee;\n        uint startTime;\n        uint yesCount;\n        uint noCount;\n    }\n\n    uint public constant OPEN_VOTE_PERIOD = 2 days;\n    uint public constant VETO_PERIOD = 2 days;\n    uint public constant TOTAL_VOTE_PERIOD = OPEN_VOTE_PERIOD + VETO_PERIOD;\n\n    uint public proposalFee;\n    IERC20 public token;\n    Void public void;\n\n    Proposal[] public proposals;\n\n    // Proposal Id => Voter => Yes Votes\n    mapping(uint => mapping(address => uint)) public yesVotes;\n\n    // Proposal Id => Voter => No Votes\n    mapping(uint => mapping(address => uint)) public noVotes;\n\n    // Voter => Deposit\n    mapping (address => uint) public deposits;\n\n    // Voter => Withdraw timestamp\n    mapping (address => uint) public withdrawTimes;\n\n    constructor(IERC20 _token, uint _initialProposalFee) public {\n        token = _token;\n        proposalFee = _initialProposalFee;\n        void = new Void();\n    }\n\n    function deposit(uint amount) public {\n        require(token.transferFrom(msg.sender, address(this), amount), \"Governance::deposit: Transfer failed\");\n        deposits[msg.sender] = deposits[msg.sender].add(amount);\n    }\n\n    function withdraw(uint amount) public {\n        require(time() > withdrawTimes[msg.sender], \"Governance::withdraw: Voters with an active proposal cannot withdraw\");\n        deposits[msg.sender] = deposits[msg.sender].sub(amount);\n        require(token.transfer(msg.sender, amount), \"Governance::withdraw: Transfer failed\");\n    }\n\n    function propose(address target, bytes memory data) public returns (uint) {\n        return proposeWithFeeRecipient(msg.sender, target, data);\n    }\n\n    function proposeWithFeeRecipient(address feeRecipient, address target, bytes memory data) public returns (uint) {\n        require(msg.sender != address(this) && target != address(token), \"Governance::proposeWithFeeRecipient: Invalid proposal\");\n        require(token.transferFrom(msg.sender, address(this), proposalFee), \"Governance::proposeWithFeeRecipient: Transfer failed\");\n\n        uint proposalId = proposals.length;\n\n        // Create a new proposal and vote yes\n        Proposal memory proposal;\n        proposal.target = target;\n        proposal.data = data;\n        proposal.proposer = msg.sender;\n        proposal.feeRecipient = feeRecipient;\n        proposal.fee = proposalFee;\n        proposal.startTime = time();\n        proposal.yesCount = proposalFee;\n\n        proposals.push(proposal);\n\n        emit Propose(proposalId, msg.sender, target, data);\n\n        return proposalId;\n    }\n\n    function voteYes(uint proposalId) public {\n        Proposal storage proposal = proposals[proposalId];\n        require(time() <= proposal.startTime.add(OPEN_VOTE_PERIOD), \"Governance::voteYes: Proposal is no longer accepting yes votes\");\n\n        uint proposalEndTime = proposal.startTime.add(TOTAL_VOTE_PERIOD);\n        if (proposalEndTime > withdrawTimes[msg.sender]) withdrawTimes[msg.sender] = proposalEndTime;\n\n        uint weight = deposits[msg.sender].sub(yesVotes[proposalId][msg.sender]);\n        proposal.yesCount = proposal.yesCount.add(weight);\n        yesVotes[proposalId][msg.sender] = deposits[msg.sender];\n\n        emit Vote(proposalId, msg.sender, true, weight);\n    }\n\n    function voteNo(uint proposalId) public {\n        Proposal storage proposal = proposals[proposalId];\n        require(proposal.result == Result.Pending, \"Governance::voteNo: Proposal is already finalized\");\n\n        uint proposalEndTime = proposal.startTime.add(TOTAL_VOTE_PERIOD);\n        uint _time = time();\n        require(_time <= proposalEndTime, \"Governance::voteNo: Proposal is no longer in voting period\");\n\n        uint _deposit = deposits[msg.sender];\n        uint weight = _deposit.sub(noVotes[proposalId][msg.sender]);\n        proposal.noCount = proposal.noCount.add(weight);\n        noVotes[proposalId][msg.sender] = _deposit;\n\n        emit Vote(proposalId, msg.sender, false, weight);\n\n        // Finalize the vote and burn the proposal fee if no votes outnumber yes votes and open voting has ended\n        if (_time > proposal.startTime.add(OPEN_VOTE_PERIOD) && proposal.noCount >= proposal.yesCount) {\n            proposal.result = Result.No;\n            require(token.transfer(address(void), proposal.fee), \"Governance::voteNo: Transfer to void failed\");\n            emit Terminate(proposalId);\n        } else if (proposalEndTime > withdrawTimes[msg.sender]) {\n            withdrawTimes[msg.sender] = proposalEndTime;\n        }\n\n    }\n\n    function removeVote(uint proposalId) public {\n        Proposal storage proposal = proposals[proposalId];\n        require(proposal.result == Result.Pending, \"Governance::removeVote: Proposal is already finalized\");\n        require(time() <= proposal.startTime.add(TOTAL_VOTE_PERIOD), \"Governance::removeVote: Proposal is no longer in voting period\");\n\n        proposal.yesCount = proposal.yesCount.sub(yesVotes[proposalId][msg.sender]);\n        proposal.noCount = proposal.noCount.sub(noVotes[proposalId][msg.sender]);\n        delete yesVotes[proposalId][msg.sender];\n        delete noVotes[proposalId][msg.sender];\n\n        emit RemoveVote(proposalId, msg.sender);\n    }\n\n    function finalize(uint proposalId) public {\n        Proposal storage proposal = proposals[proposalId];\n        require(proposal.result == Result.Pending, \"Governance::finalize: Proposal is already finalized\");\n        uint _time = time();\n\n        if (proposal.yesCount > proposal.noCount) {\n            require(_time > proposal.startTime.add(TOTAL_VOTE_PERIOD), \"Governance::finalize: Proposal cannot be executed until end of veto period\");\n\n            proposal.result = Result.Yes;\n            require(token.transfer(proposal.feeRecipient, proposal.fee), \"Governance::finalize: Return proposal fee failed\");\n            proposal.target.call(proposal.data);\n\n            emit Execute(proposalId);\n        } else {\n            require(_time > proposal.startTime.add(OPEN_VOTE_PERIOD), \"Governance::finalize: Proposal cannot be terminated until end of yes vote period\");\n\n            proposal.result = Result.No;\n            require(token.transfer(address(void), proposal.fee), \"Governance::finalize: Transfer to void failed\");\n\n            emit Terminate(proposalId);\n        }\n    }\n\n    function setProposalFee(uint fee) public {\n        require(msg.sender == address(this), \"Governance::setProposalFee: Proposal fee can only be set via governance\");\n        proposalFee = fee;\n    }\n\n    function time() public view returns (uint) {\n        return block.timestamp;\n    }\n\n    function getProposal(uint proposalId) external view returns (Proposal memory) {\n        return proposals[proposalId];\n    }\n\n    function getProposalsCount() external view returns (uint) {\n        return proposals.length;\n    }\n\n}\n",
  "sourcePath": "/Users/jlwaugh/Desktop/farmunity/contracts/Governance.sol",
  "compiler": {
    "name": "solc",
    "version": "0.5.8+commit.23d335f2.Emscripten.clang"
  },
  "schemaVersion": "3.0.16",
  "updatedAt": "2019-09-22T12:32:55.555Z",
  "devdoc": {
    "methods": {}
  },
  "userdoc": {
    "methods": {}
  }
}